{
	"data": {
		"bytecode": {
			"linkReferences": {},
			"object": "60a060405234801561000f575f80fd5b50604051610e3f380380610e3f83398101604081905261002e916101d1565b6001600160a01b038116608052806100453061004c565b50506101fe565b6100df816100da60408051610100810182525f80825260208201819052918101829052606081018290526080810182905260a0810182905260c0810182905260e08101919091525060408051610100810182525f808252602082018190526001928201839052606082018390526080820183905260a082019290925260c0810182905260e081019190915290565b6100e2565b50565b805115156001609f1b8316151514158061010a5750602081015115156001609e1b8316151514155b806101235750604081015115156001609d1b8316151514155b8061013c5750606081015115156001609c1b8316151514155b806101555750608081015115156001609b1b8316151514155b8061016e575060a081015115156001609a1b8316151514155b80610187575060c08101511515600160991b8316151514155b806101a0575060e08101511515600160981b8316151514155b156101cd57604051630732d7b560e51b81526001600160a01b038316600482015260240160405180910390fd5b5050565b5f602082840312156101e1575f80fd5b81516001600160a01b03811681146101f7575f80fd5b9392505050565b608051610c2261021d5f395f81816102d8015261044a0152610c225ff3fe608060405234801561000f575f80fd5b50600436106100f0575f3560e01c8063a910f80f11610093578063dacdbe7711610063578063dacdbe77146102b4578063dc4c90d3146102d3578063e1b4af69146102a6578063fe9a6f451461031f575f80fd5b8063a910f80f14610265578063ab6291fe14610273578063b47b2fb114610293578063b6a8b0fa146102a6575f80fd5b80633440d820116100ce5780633440d82014610189578063575e24b41461019c5780635c338d32146101af578063612c39b7146101ce575f80fd5b806305140d4d146100f457806326776cc11461012657806330b7cdef14610145575b5f80fd5b6101136101023660046106ad565b60036020525f908152604090205481565b6040519081526020015b60405180910390f35b6101136101343660046106ad565b60026020525f908152604090205481565b610158610153366004610763565b610332565b6040517fffffffff00000000000000000000000000000000000000000000000000000000909116815260200161011d565b6101586101973660046107e4565b61039b565b6101586101aa36600461085b565b6103ce565b6101136101bd3660046106ad565b5f6020819052908152604090205481565b61025860408051610100810182525f80825260208201819052918101829052606081018290526080810182905260a0810182905260c0810182905260e08101919091525060408051610100810182525f808252602082018190526001928201839052606082018390526080820183905260a082019290925260c0810182905260e081019190915290565b60405161011d91906108b5565b61015861019736600461094e565b6102866102813660046109b8565b610430565b60405161011d91906109f7565b6101586102a1366004610763565b610564565b610158610197366004610a60565b6101136102c23660046106ad565b60016020525f908152604090205481565b6102fa7f000000000000000000000000000000000000000000000000000000000000000081565b60405173ffffffffffffffffffffffffffffffffffffffff909116815260200161011d565b61015861032d36600461085b565b6105c8565b5f60038161034d610348368a90038a018a610acc565b61062b565b81526020019081526020015f205f81548092919061036a90610b81565b909155507f30b7cdef0000000000000000000000000000000000000000000000000000000098975050505050505050565b5f6040517f0a85dc2900000000000000000000000000000000000000000000000000000000815260040160405180910390fd5b5f80806103e361034836899003890189610acc565b81526020019081526020015f205f81548092919061040090610b81565b909155507f575e24b400000000000000000000000000000000000000000000000000000000979650505050505050565b60603373ffffffffffffffffffffffffffffffffffffffff7f000000000000000000000000000000000000000000000000000000000000000016146104a1576040517fae18210a00000000000000000000000000000000000000000000000000000000815260040160405180910390fd5b5f803073ffffffffffffffffffffffffffffffffffffffff1685856040516104ca929190610bdd565b5f604051808303815f865af19150503d805f8114610503576040519150601f19603f3d011682016040523d82523d5f602084013e610508565b606091505b5091509150811561051c57915061055e9050565b80515f03610556576040517fa40afa3800000000000000000000000000000000000000000000000000000000815260040160405180910390fd5b805160208201fd5b92915050565b5f60018161057a610348368a90038a018a610acc565b81526020019081526020015f205f81548092919061059790610b81565b909155507fb47b2fb10000000000000000000000000000000000000000000000000000000098975050505050505050565b5f6002816105de61034836899003890189610acc565b81526020019081526020015f205f8154809291906105fb90610b81565b909155507ffe9a6f4500000000000000000000000000000000000000000000000000000000979650505050505050565b5f816040516020016106909190815173ffffffffffffffffffffffffffffffffffffffff908116825260208084015182169083015260408084015162ffffff169083015260608084015160020b90830152608092830151169181019190915260a00190565b604051602081830303815290604052805190602001209050919050565b5f602082840312156106bd575f80fd5b5035919050565b73ffffffffffffffffffffffffffffffffffffffff811681146106e5575f80fd5b50565b80356106f3816106c4565b919050565b5f60a08284031215610708575f80fd5b50919050565b5f60608284031215610708575f80fd5b5f8083601f84011261072e575f80fd5b50813567ffffffffffffffff811115610745575f80fd5b60208301915083602082850101111561075c575f80fd5b9250929050565b5f805f805f806101608789031215610779575f80fd5b8635610784816106c4565b955061079388602089016106f8565b94506107a28860c0890161070e565b9350610120870135925061014087013567ffffffffffffffff8111156107c6575f80fd5b6107d289828a0161071e565b979a9699509497509295939492505050565b5f805f805f61010086880312156107f9575f80fd5b8535610804816106c4565b945061081387602088016106f8565b935060c0860135610823816106c4565b925060e086013567ffffffffffffffff81111561083e575f80fd5b61084a8882890161071e565b969995985093965092949392505050565b5f805f805f6101408688031215610870575f80fd5b853561087b816106c4565b945061088a87602088016106f8565b93506108998760c0880161070e565b925061012086013567ffffffffffffffff81111561083e575f80fd5b5f6101008201905082511515825260208301511515602083015260408301511515604083015260608301511515606083015260808301516108fa608084018215159052565b5060a083015161090e60a084018215159052565b5060c083015161092260c084018215159052565b5060e083015161093660e084018215159052565b5092915050565b8035600281900b81146106f3575f80fd5b5f805f805f806101208789031215610964575f80fd5b863561096f816106c4565b955061097e88602089016106f8565b945060c087013561098e816106c4565b935061099c60e0880161093d565b925061010087013567ffffffffffffffff8111156107c6575f80fd5b5f80602083850312156109c9575f80fd5b823567ffffffffffffffff8111156109df575f80fd5b6109eb8582860161071e565b90969095509350505050565b5f6020808352835180828501525f5b81811015610a2257858101830151858201604001528201610a06565b505f6040828601015260407fffffffffffffffffffffffffffffffffffffffffffffffffffffffffffffffe0601f8301168501019250505092915050565b5f805f805f806101208789031215610a76575f80fd5b8635610a81816106c4565b9550610a9088602089016106f8565b945060c0870135935060e0870135925061010087013567ffffffffffffffff8111156107c6575f80fd5b803562ffffff811681146106f3575f80fd5b5f60a08284031215610adc575f80fd5b60405160a0810181811067ffffffffffffffff82111715610b24577f4e487b71000000000000000000000000000000000000000000000000000000005f52604160045260245ffd5b6040528235610b32816106c4565b81526020830135610b42816106c4565b6020820152610b5360408401610aba565b6040820152610b646060840161093d565b6060820152610b75608084016106e8565b60808201529392505050565b5f7fffffffffffffffffffffffffffffffffffffffffffffffffffffffffffffffff8203610bd6577f4e487b71000000000000000000000000000000000000000000000000000000005f52601160045260245ffd5b5060010190565b818382375f910190815291905056fea264697066735822122067284833b4a78ce53012f71c68b4fe074ea0621bc961de3beab4aab56b78ff5864736f6c63430008140033",
			"opcodes": "PUSH1 0xA0 PUSH1 0x40 MSTORE CALLVALUE DUP1 ISZERO PUSH2 0xF JUMPI PUSH0 DUP1 REVERT JUMPDEST POP PUSH1 0x40 MLOAD PUSH2 0xE3F CODESIZE SUB DUP1 PUSH2 0xE3F DUP4 CODECOPY DUP2 ADD PUSH1 0x40 DUP2 SWAP1 MSTORE PUSH2 0x2E SWAP2 PUSH2 0x1D1 JUMP JUMPDEST PUSH1 0x1 PUSH1 0x1 PUSH1 0xA0 SHL SUB DUP2 AND PUSH1 0x80 MSTORE DUP1 PUSH2 0x45 ADDRESS PUSH2 0x4C JUMP JUMPDEST POP POP PUSH2 0x1FE JUMP JUMPDEST PUSH2 0xDF DUP2 PUSH2 0xDA PUSH1 0x40 DUP1 MLOAD PUSH2 0x100 DUP2 ADD DUP3 MSTORE PUSH0 DUP1 DUP3 MSTORE PUSH1 0x20 DUP3 ADD DUP2 SWAP1 MSTORE SWAP2 DUP2 ADD DUP3 SWAP1 MSTORE PUSH1 0x60 DUP2 ADD DUP3 SWAP1 MSTORE PUSH1 0x80 DUP2 ADD DUP3 SWAP1 MSTORE PUSH1 0xA0 DUP2 ADD DUP3 SWAP1 MSTORE PUSH1 0xC0 DUP2 ADD DUP3 SWAP1 MSTORE PUSH1 0xE0 DUP2 ADD SWAP2 SWAP1 SWAP2 MSTORE POP PUSH1 0x40 DUP1 MLOAD PUSH2 0x100 DUP2 ADD DUP3 MSTORE PUSH0 DUP1 DUP3 MSTORE PUSH1 0x20 DUP3 ADD DUP2 SWAP1 MSTORE PUSH1 0x1 SWAP3 DUP3 ADD DUP4 SWAP1 MSTORE PUSH1 0x60 DUP3 ADD DUP4 SWAP1 MSTORE PUSH1 0x80 DUP3 ADD DUP4 SWAP1 MSTORE PUSH1 0xA0 DUP3 ADD SWAP3 SWAP1 SWAP3 MSTORE PUSH1 0xC0 DUP2 ADD DUP3 SWAP1 MSTORE PUSH1 0xE0 DUP2 ADD SWAP2 SWAP1 SWAP2 MSTORE SWAP1 JUMP JUMPDEST PUSH2 0xE2 JUMP JUMPDEST POP JUMP JUMPDEST DUP1 MLOAD ISZERO ISZERO PUSH1 0x1 PUSH1 0x9F SHL DUP4 AND ISZERO ISZERO EQ ISZERO DUP1 PUSH2 0x10A JUMPI POP PUSH1 0x20 DUP2 ADD MLOAD ISZERO ISZERO PUSH1 0x1 PUSH1 0x9E SHL DUP4 AND ISZERO ISZERO EQ ISZERO JUMPDEST DUP1 PUSH2 0x123 JUMPI POP PUSH1 0x40 DUP2 ADD MLOAD ISZERO ISZERO PUSH1 0x1 PUSH1 0x9D SHL DUP4 AND ISZERO ISZERO EQ ISZERO JUMPDEST DUP1 PUSH2 0x13C JUMPI POP PUSH1 0x60 DUP2 ADD MLOAD ISZERO ISZERO PUSH1 0x1 PUSH1 0x9C SHL DUP4 AND ISZERO ISZERO EQ ISZERO JUMPDEST DUP1 PUSH2 0x155 JUMPI POP PUSH1 0x80 DUP2 ADD MLOAD ISZERO ISZERO PUSH1 0x1 PUSH1 0x9B SHL DUP4 AND ISZERO ISZERO EQ ISZERO JUMPDEST DUP1 PUSH2 0x16E JUMPI POP PUSH1 0xA0 DUP2 ADD MLOAD ISZERO ISZERO PUSH1 0x1 PUSH1 0x9A SHL DUP4 AND ISZERO ISZERO EQ ISZERO JUMPDEST DUP1 PUSH2 0x187 JUMPI POP PUSH1 0xC0 DUP2 ADD MLOAD ISZERO ISZERO PUSH1 0x1 PUSH1 0x99 SHL DUP4 AND ISZERO ISZERO EQ ISZERO JUMPDEST DUP1 PUSH2 0x1A0 JUMPI POP PUSH1 0xE0 DUP2 ADD MLOAD ISZERO ISZERO PUSH1 0x1 PUSH1 0x98 SHL DUP4 AND ISZERO ISZERO EQ ISZERO JUMPDEST ISZERO PUSH2 0x1CD JUMPI PUSH1 0x40 MLOAD PUSH4 0x732D7B5 PUSH1 0xE5 SHL DUP2 MSTORE PUSH1 0x1 PUSH1 0x1 PUSH1 0xA0 SHL SUB DUP4 AND PUSH1 0x4 DUP3 ADD MSTORE PUSH1 0x24 ADD PUSH1 0x40 MLOAD DUP1 SWAP2 SUB SWAP1 REVERT JUMPDEST POP POP JUMP JUMPDEST PUSH0 PUSH1 0x20 DUP3 DUP5 SUB SLT ISZERO PUSH2 0x1E1 JUMPI PUSH0 DUP1 REVERT JUMPDEST DUP2 MLOAD PUSH1 0x1 PUSH1 0x1 PUSH1 0xA0 SHL SUB DUP2 AND DUP2 EQ PUSH2 0x1F7 JUMPI PUSH0 DUP1 REVERT JUMPDEST SWAP4 SWAP3 POP POP POP JUMP JUMPDEST PUSH1 0x80 MLOAD PUSH2 0xC22 PUSH2 0x21D PUSH0 CODECOPY PUSH0 DUP2 DUP2 PUSH2 0x2D8 ADD MSTORE PUSH2 0x44A ADD MSTORE PUSH2 0xC22 PUSH0 RETURN INVALID PUSH1 0x80 PUSH1 0x40 MSTORE CALLVALUE DUP1 ISZERO PUSH2 0xF JUMPI PUSH0 DUP1 REVERT JUMPDEST POP PUSH1 0x4 CALLDATASIZE LT PUSH2 0xF0 JUMPI PUSH0 CALLDATALOAD PUSH1 0xE0 SHR DUP1 PUSH4 0xA910F80F GT PUSH2 0x93 JUMPI DUP1 PUSH4 0xDACDBE77 GT PUSH2 0x63 JUMPI DUP1 PUSH4 0xDACDBE77 EQ PUSH2 0x2B4 JUMPI DUP1 PUSH4 0xDC4C90D3 EQ PUSH2 0x2D3 JUMPI DUP1 PUSH4 0xE1B4AF69 EQ PUSH2 0x2A6 JUMPI DUP1 PUSH4 0xFE9A6F45 EQ PUSH2 0x31F JUMPI PUSH0 DUP1 REVERT JUMPDEST DUP1 PUSH4 0xA910F80F EQ PUSH2 0x265 JUMPI DUP1 PUSH4 0xAB6291FE EQ PUSH2 0x273 JUMPI DUP1 PUSH4 0xB47B2FB1 EQ PUSH2 0x293 JUMPI DUP1 PUSH4 0xB6A8B0FA EQ PUSH2 0x2A6 JUMPI PUSH0 DUP1 REVERT JUMPDEST DUP1 PUSH4 0x3440D820 GT PUSH2 0xCE JUMPI DUP1 PUSH4 0x3440D820 EQ PUSH2 0x189 JUMPI DUP1 PUSH4 0x575E24B4 EQ PUSH2 0x19C JUMPI DUP1 PUSH4 0x5C338D32 EQ PUSH2 0x1AF JUMPI DUP1 PUSH4 0x612C39B7 EQ PUSH2 0x1CE JUMPI PUSH0 DUP1 REVERT JUMPDEST DUP1 PUSH4 0x5140D4D EQ PUSH2 0xF4 JUMPI DUP1 PUSH4 0x26776CC1 EQ PUSH2 0x126 JUMPI DUP1 PUSH4 0x30B7CDEF EQ PUSH2 0x145 JUMPI JUMPDEST PUSH0 DUP1 REVERT JUMPDEST PUSH2 0x113 PUSH2 0x102 CALLDATASIZE PUSH1 0x4 PUSH2 0x6AD JUMP JUMPDEST PUSH1 0x3 PUSH1 0x20 MSTORE PUSH0 SWAP1 DUP2 MSTORE PUSH1 0x40 SWAP1 KECCAK256 SLOAD DUP2 JUMP JUMPDEST PUSH1 0x40 MLOAD SWAP1 DUP2 MSTORE PUSH1 0x20 ADD JUMPDEST PUSH1 0x40 MLOAD DUP1 SWAP2 SUB SWAP1 RETURN JUMPDEST PUSH2 0x113 PUSH2 0x134 CALLDATASIZE PUSH1 0x4 PUSH2 0x6AD JUMP JUMPDEST PUSH1 0x2 PUSH1 0x20 MSTORE PUSH0 SWAP1 DUP2 MSTORE PUSH1 0x40 SWAP1 KECCAK256 SLOAD DUP2 JUMP JUMPDEST PUSH2 0x158 PUSH2 0x153 CALLDATASIZE PUSH1 0x4 PUSH2 0x763 JUMP JUMPDEST PUSH2 0x332 JUMP JUMPDEST PUSH1 0x40 MLOAD PUSH32 0xFFFFFFFF00000000000000000000000000000000000000000000000000000000 SWAP1 SWAP2 AND DUP2 MSTORE PUSH1 0x20 ADD PUSH2 0x11D JUMP JUMPDEST PUSH2 0x158 PUSH2 0x197 CALLDATASIZE PUSH1 0x4 PUSH2 0x7E4 JUMP JUMPDEST PUSH2 0x39B JUMP JUMPDEST PUSH2 0x158 PUSH2 0x1AA CALLDATASIZE PUSH1 0x4 PUSH2 0x85B JUMP JUMPDEST PUSH2 0x3CE JUMP JUMPDEST PUSH2 0x113 PUSH2 0x1BD CALLDATASIZE PUSH1 0x4 PUSH2 0x6AD JUMP JUMPDEST PUSH0 PUSH1 0x20 DUP2 SWAP1 MSTORE SWAP1 DUP2 MSTORE PUSH1 0x40 SWAP1 KECCAK256 SLOAD DUP2 JUMP JUMPDEST PUSH2 0x258 PUSH1 0x40 DUP1 MLOAD PUSH2 0x100 DUP2 ADD DUP3 MSTORE PUSH0 DUP1 DUP3 MSTORE PUSH1 0x20 DUP3 ADD DUP2 SWAP1 MSTORE SWAP2 DUP2 ADD DUP3 SWAP1 MSTORE PUSH1 0x60 DUP2 ADD DUP3 SWAP1 MSTORE PUSH1 0x80 DUP2 ADD DUP3 SWAP1 MSTORE PUSH1 0xA0 DUP2 ADD DUP3 SWAP1 MSTORE PUSH1 0xC0 DUP2 ADD DUP3 SWAP1 MSTORE PUSH1 0xE0 DUP2 ADD SWAP2 SWAP1 SWAP2 MSTORE POP PUSH1 0x40 DUP1 MLOAD PUSH2 0x100 DUP2 ADD DUP3 MSTORE PUSH0 DUP1 DUP3 MSTORE PUSH1 0x20 DUP3 ADD DUP2 SWAP1 MSTORE PUSH1 0x1 SWAP3 DUP3 ADD DUP4 SWAP1 MSTORE PUSH1 0x60 DUP3 ADD DUP4 SWAP1 MSTORE PUSH1 0x80 DUP3 ADD DUP4 SWAP1 MSTORE PUSH1 0xA0 DUP3 ADD SWAP3 SWAP1 SWAP3 MSTORE PUSH1 0xC0 DUP2 ADD DUP3 SWAP1 MSTORE PUSH1 0xE0 DUP2 ADD SWAP2 SWAP1 SWAP2 MSTORE SWAP1 JUMP JUMPDEST PUSH1 0x40 MLOAD PUSH2 0x11D SWAP2 SWAP1 PUSH2 0x8B5 JUMP JUMPDEST PUSH2 0x158 PUSH2 0x197 CALLDATASIZE PUSH1 0x4 PUSH2 0x94E JUMP JUMPDEST PUSH2 0x286 PUSH2 0x281 CALLDATASIZE PUSH1 0x4 PUSH2 0x9B8 JUMP JUMPDEST PUSH2 0x430 JUMP JUMPDEST PUSH1 0x40 MLOAD PUSH2 0x11D SWAP2 SWAP1 PUSH2 0x9F7 JUMP JUMPDEST PUSH2 0x158 PUSH2 0x2A1 CALLDATASIZE PUSH1 0x4 PUSH2 0x763 JUMP JUMPDEST PUSH2 0x564 JUMP JUMPDEST PUSH2 0x158 PUSH2 0x197 CALLDATASIZE PUSH1 0x4 PUSH2 0xA60 JUMP JUMPDEST PUSH2 0x113 PUSH2 0x2C2 CALLDATASIZE PUSH1 0x4 PUSH2 0x6AD JUMP JUMPDEST PUSH1 0x1 PUSH1 0x20 MSTORE PUSH0 SWAP1 DUP2 MSTORE PUSH1 0x40 SWAP1 KECCAK256 SLOAD DUP2 JUMP JUMPDEST PUSH2 0x2FA PUSH32 0x0 DUP2 JUMP JUMPDEST PUSH1 0x40 MLOAD PUSH20 0xFFFFFFFFFFFFFFFFFFFFFFFFFFFFFFFFFFFFFFFF SWAP1 SWAP2 AND DUP2 MSTORE PUSH1 0x20 ADD PUSH2 0x11D JUMP JUMPDEST PUSH2 0x158 PUSH2 0x32D CALLDATASIZE PUSH1 0x4 PUSH2 0x85B JUMP JUMPDEST PUSH2 0x5C8 JUMP JUMPDEST PUSH0 PUSH1 0x3 DUP2 PUSH2 0x34D PUSH2 0x348 CALLDATASIZE DUP11 SWAP1 SUB DUP11 ADD DUP11 PUSH2 0xACC JUMP JUMPDEST PUSH2 0x62B JUMP JUMPDEST DUP2 MSTORE PUSH1 0x20 ADD SWAP1 DUP2 MSTORE PUSH1 0x20 ADD PUSH0 KECCAK256 PUSH0 DUP2 SLOAD DUP1 SWAP3 SWAP2 SWAP1 PUSH2 0x36A SWAP1 PUSH2 0xB81 JUMP JUMPDEST SWAP1 SWAP2 SSTORE POP PUSH32 0x30B7CDEF00000000000000000000000000000000000000000000000000000000 SWAP9 SWAP8 POP POP POP POP POP POP POP POP JUMP JUMPDEST PUSH0 PUSH1 0x40 MLOAD PUSH32 0xA85DC2900000000000000000000000000000000000000000000000000000000 DUP2 MSTORE PUSH1 0x4 ADD PUSH1 0x40 MLOAD DUP1 SWAP2 SUB SWAP1 REVERT JUMPDEST PUSH0 DUP1 DUP1 PUSH2 0x3E3 PUSH2 0x348 CALLDATASIZE DUP10 SWAP1 SUB DUP10 ADD DUP10 PUSH2 0xACC JUMP JUMPDEST DUP2 MSTORE PUSH1 0x20 ADD SWAP1 DUP2 MSTORE PUSH1 0x20 ADD PUSH0 KECCAK256 PUSH0 DUP2 SLOAD DUP1 SWAP3 SWAP2 SWAP1 PUSH2 0x400 SWAP1 PUSH2 0xB81 JUMP JUMPDEST SWAP1 SWAP2 SSTORE POP PUSH32 0x575E24B400000000000000000000000000000000000000000000000000000000 SWAP8 SWAP7 POP POP POP POP POP POP POP JUMP JUMPDEST PUSH1 0x60 CALLER PUSH20 0xFFFFFFFFFFFFFFFFFFFFFFFFFFFFFFFFFFFFFFFF PUSH32 0x0 AND EQ PUSH2 0x4A1 JUMPI PUSH1 0x40 MLOAD PUSH32 0xAE18210A00000000000000000000000000000000000000000000000000000000 DUP2 MSTORE PUSH1 0x4 ADD PUSH1 0x40 MLOAD DUP1 SWAP2 SUB SWAP1 REVERT JUMPDEST PUSH0 DUP1 ADDRESS PUSH20 0xFFFFFFFFFFFFFFFFFFFFFFFFFFFFFFFFFFFFFFFF AND DUP6 DUP6 PUSH1 0x40 MLOAD PUSH2 0x4CA SWAP3 SWAP2 SWAP1 PUSH2 0xBDD JUMP JUMPDEST PUSH0 PUSH1 0x40 MLOAD DUP1 DUP4 SUB DUP2 PUSH0 DUP7 GAS CALL SWAP2 POP POP RETURNDATASIZE DUP1 PUSH0 DUP2 EQ PUSH2 0x503 JUMPI PUSH1 0x40 MLOAD SWAP2 POP PUSH1 0x1F NOT PUSH1 0x3F RETURNDATASIZE ADD AND DUP3 ADD PUSH1 0x40 MSTORE RETURNDATASIZE DUP3 MSTORE RETURNDATASIZE PUSH0 PUSH1 0x20 DUP5 ADD RETURNDATACOPY PUSH2 0x508 JUMP JUMPDEST PUSH1 0x60 SWAP2 POP JUMPDEST POP SWAP2 POP SWAP2 POP DUP2 ISZERO PUSH2 0x51C JUMPI SWAP2 POP PUSH2 0x55E SWAP1 POP JUMP JUMPDEST DUP1 MLOAD PUSH0 SUB PUSH2 0x556 JUMPI PUSH1 0x40 MLOAD PUSH32 0xA40AFA3800000000000000000000000000000000000000000000000000000000 DUP2 MSTORE PUSH1 0x4 ADD PUSH1 0x40 MLOAD DUP1 SWAP2 SUB SWAP1 REVERT JUMPDEST DUP1 MLOAD PUSH1 0x20 DUP3 ADD REVERT JUMPDEST SWAP3 SWAP2 POP POP JUMP JUMPDEST PUSH0 PUSH1 0x1 DUP2 PUSH2 0x57A PUSH2 0x348 CALLDATASIZE DUP11 SWAP1 SUB DUP11 ADD DUP11 PUSH2 0xACC JUMP JUMPDEST DUP2 MSTORE PUSH1 0x20 ADD SWAP1 DUP2 MSTORE PUSH1 0x20 ADD PUSH0 KECCAK256 PUSH0 DUP2 SLOAD DUP1 SWAP3 SWAP2 SWAP1 PUSH2 0x597 SWAP1 PUSH2 0xB81 JUMP JUMPDEST SWAP1 SWAP2 SSTORE POP PUSH32 0xB47B2FB100000000000000000000000000000000000000000000000000000000 SWAP9 SWAP8 POP POP POP POP POP POP POP POP JUMP JUMPDEST PUSH0 PUSH1 0x2 DUP2 PUSH2 0x5DE PUSH2 0x348 CALLDATASIZE DUP10 SWAP1 SUB DUP10 ADD DUP10 PUSH2 0xACC JUMP JUMPDEST DUP2 MSTORE PUSH1 0x20 ADD SWAP1 DUP2 MSTORE PUSH1 0x20 ADD PUSH0 KECCAK256 PUSH0 DUP2 SLOAD DUP1 SWAP3 SWAP2 SWAP1 PUSH2 0x5FB SWAP1 PUSH2 0xB81 JUMP JUMPDEST SWAP1 SWAP2 SSTORE POP PUSH32 0xFE9A6F4500000000000000000000000000000000000000000000000000000000 SWAP8 SWAP7 POP POP POP POP POP POP POP JUMP JUMPDEST PUSH0 DUP2 PUSH1 0x40 MLOAD PUSH1 0x20 ADD PUSH2 0x690 SWAP2 SWAP1 DUP2 MLOAD PUSH20 0xFFFFFFFFFFFFFFFFFFFFFFFFFFFFFFFFFFFFFFFF SWAP1 DUP2 AND DUP3 MSTORE PUSH1 0x20 DUP1 DUP5 ADD MLOAD DUP3 AND SWAP1 DUP4 ADD MSTORE PUSH1 0x40 DUP1 DUP5 ADD MLOAD PUSH3 0xFFFFFF AND SWAP1 DUP4 ADD MSTORE PUSH1 0x60 DUP1 DUP5 ADD MLOAD PUSH1 0x2 SIGNEXTEND SWAP1 DUP4 ADD MSTORE PUSH1 0x80 SWAP3 DUP4 ADD MLOAD AND SWAP2 DUP2 ADD SWAP2 SWAP1 SWAP2 MSTORE PUSH1 0xA0 ADD SWAP1 JUMP JUMPDEST PUSH1 0x40 MLOAD PUSH1 0x20 DUP2 DUP4 SUB SUB DUP2 MSTORE SWAP1 PUSH1 0x40 MSTORE DUP1 MLOAD SWAP1 PUSH1 0x20 ADD KECCAK256 SWAP1 POP SWAP2 SWAP1 POP JUMP JUMPDEST PUSH0 PUSH1 0x20 DUP3 DUP5 SUB SLT ISZERO PUSH2 0x6BD JUMPI PUSH0 DUP1 REVERT JUMPDEST POP CALLDATALOAD SWAP2 SWAP1 POP JUMP JUMPDEST PUSH20 0xFFFFFFFFFFFFFFFFFFFFFFFFFFFFFFFFFFFFFFFF DUP2 AND DUP2 EQ PUSH2 0x6E5 JUMPI PUSH0 DUP1 REVERT JUMPDEST POP JUMP JUMPDEST DUP1 CALLDATALOAD PUSH2 0x6F3 DUP2 PUSH2 0x6C4 JUMP JUMPDEST SWAP2 SWAP1 POP JUMP JUMPDEST PUSH0 PUSH1 0xA0 DUP3 DUP5 SUB SLT ISZERO PUSH2 0x708 JUMPI PUSH0 DUP1 REVERT JUMPDEST POP SWAP2 SWAP1 POP JUMP JUMPDEST PUSH0 PUSH1 0x60 DUP3 DUP5 SUB SLT ISZERO PUSH2 0x708 JUMPI PUSH0 DUP1 REVERT JUMPDEST PUSH0 DUP1 DUP4 PUSH1 0x1F DUP5 ADD SLT PUSH2 0x72E JUMPI PUSH0 DUP1 REVERT JUMPDEST POP DUP2 CALLDATALOAD PUSH8 0xFFFFFFFFFFFFFFFF DUP2 GT ISZERO PUSH2 0x745 JUMPI PUSH0 DUP1 REVERT JUMPDEST PUSH1 0x20 DUP4 ADD SWAP2 POP DUP4 PUSH1 0x20 DUP3 DUP6 ADD ADD GT ISZERO PUSH2 0x75C JUMPI PUSH0 DUP1 REVERT JUMPDEST SWAP3 POP SWAP3 SWAP1 POP JUMP JUMPDEST PUSH0 DUP1 PUSH0 DUP1 PUSH0 DUP1 PUSH2 0x160 DUP8 DUP10 SUB SLT ISZERO PUSH2 0x779 JUMPI PUSH0 DUP1 REVERT JUMPDEST DUP7 CALLDATALOAD PUSH2 0x784 DUP2 PUSH2 0x6C4 JUMP JUMPDEST SWAP6 POP PUSH2 0x793 DUP9 PUSH1 0x20 DUP10 ADD PUSH2 0x6F8 JUMP JUMPDEST SWAP5 POP PUSH2 0x7A2 DUP9 PUSH1 0xC0 DUP10 ADD PUSH2 0x70E JUMP JUMPDEST SWAP4 POP PUSH2 0x120 DUP8 ADD CALLDATALOAD SWAP3 POP PUSH2 0x140 DUP8 ADD CALLDATALOAD PUSH8 0xFFFFFFFFFFFFFFFF DUP2 GT ISZERO PUSH2 0x7C6 JUMPI PUSH0 DUP1 REVERT JUMPDEST PUSH2 0x7D2 DUP10 DUP3 DUP11 ADD PUSH2 0x71E JUMP JUMPDEST SWAP8 SWAP11 SWAP7 SWAP10 POP SWAP5 SWAP8 POP SWAP3 SWAP6 SWAP4 SWAP5 SWAP3 POP POP POP JUMP JUMPDEST PUSH0 DUP1 PUSH0 DUP1 PUSH0 PUSH2 0x100 DUP7 DUP9 SUB SLT ISZERO PUSH2 0x7F9 JUMPI PUSH0 DUP1 REVERT JUMPDEST DUP6 CALLDATALOAD PUSH2 0x804 DUP2 PUSH2 0x6C4 JUMP JUMPDEST SWAP5 POP PUSH2 0x813 DUP8 PUSH1 0x20 DUP9 ADD PUSH2 0x6F8 JUMP JUMPDEST SWAP4 POP PUSH1 0xC0 DUP7 ADD CALLDATALOAD PUSH2 0x823 DUP2 PUSH2 0x6C4 JUMP JUMPDEST SWAP3 POP PUSH1 0xE0 DUP7 ADD CALLDATALOAD PUSH8 0xFFFFFFFFFFFFFFFF DUP2 GT ISZERO PUSH2 0x83E JUMPI PUSH0 DUP1 REVERT JUMPDEST PUSH2 0x84A DUP9 DUP3 DUP10 ADD PUSH2 0x71E JUMP JUMPDEST SWAP7 SWAP10 SWAP6 SWAP9 POP SWAP4 SWAP7 POP SWAP3 SWAP5 SWAP4 SWAP3 POP POP POP JUMP JUMPDEST PUSH0 DUP1 PUSH0 DUP1 PUSH0 PUSH2 0x140 DUP7 DUP9 SUB SLT ISZERO PUSH2 0x870 JUMPI PUSH0 DUP1 REVERT JUMPDEST DUP6 CALLDATALOAD PUSH2 0x87B DUP2 PUSH2 0x6C4 JUMP JUMPDEST SWAP5 POP PUSH2 0x88A DUP8 PUSH1 0x20 DUP9 ADD PUSH2 0x6F8 JUMP JUMPDEST SWAP4 POP PUSH2 0x899 DUP8 PUSH1 0xC0 DUP9 ADD PUSH2 0x70E JUMP JUMPDEST SWAP3 POP PUSH2 0x120 DUP7 ADD CALLDATALOAD PUSH8 0xFFFFFFFFFFFFFFFF DUP2 GT ISZERO PUSH2 0x83E JUMPI PUSH0 DUP1 REVERT JUMPDEST PUSH0 PUSH2 0x100 DUP3 ADD SWAP1 POP DUP3 MLOAD ISZERO ISZERO DUP3 MSTORE PUSH1 0x20 DUP4 ADD MLOAD ISZERO ISZERO PUSH1 0x20 DUP4 ADD MSTORE PUSH1 0x40 DUP4 ADD MLOAD ISZERO ISZERO PUSH1 0x40 DUP4 ADD MSTORE PUSH1 0x60 DUP4 ADD MLOAD ISZERO ISZERO PUSH1 0x60 DUP4 ADD MSTORE PUSH1 0x80 DUP4 ADD MLOAD PUSH2 0x8FA PUSH1 0x80 DUP5 ADD DUP3 ISZERO ISZERO SWAP1 MSTORE JUMP JUMPDEST POP PUSH1 0xA0 DUP4 ADD MLOAD PUSH2 0x90E PUSH1 0xA0 DUP5 ADD DUP3 ISZERO ISZERO SWAP1 MSTORE JUMP JUMPDEST POP PUSH1 0xC0 DUP4 ADD MLOAD PUSH2 0x922 PUSH1 0xC0 DUP5 ADD DUP3 ISZERO ISZERO SWAP1 MSTORE JUMP JUMPDEST POP PUSH1 0xE0 DUP4 ADD MLOAD PUSH2 0x936 PUSH1 0xE0 DUP5 ADD DUP3 ISZERO ISZERO SWAP1 MSTORE JUMP JUMPDEST POP SWAP3 SWAP2 POP POP JUMP JUMPDEST DUP1 CALLDATALOAD PUSH1 0x2 DUP2 SWAP1 SIGNEXTEND DUP2 EQ PUSH2 0x6F3 JUMPI PUSH0 DUP1 REVERT JUMPDEST PUSH0 DUP1 PUSH0 DUP1 PUSH0 DUP1 PUSH2 0x120 DUP8 DUP10 SUB SLT ISZERO PUSH2 0x964 JUMPI PUSH0 DUP1 REVERT JUMPDEST DUP7 CALLDATALOAD PUSH2 0x96F DUP2 PUSH2 0x6C4 JUMP JUMPDEST SWAP6 POP PUSH2 0x97E DUP9 PUSH1 0x20 DUP10 ADD PUSH2 0x6F8 JUMP JUMPDEST SWAP5 POP PUSH1 0xC0 DUP8 ADD CALLDATALOAD PUSH2 0x98E DUP2 PUSH2 0x6C4 JUMP JUMPDEST SWAP4 POP PUSH2 0x99C PUSH1 0xE0 DUP9 ADD PUSH2 0x93D JUMP JUMPDEST SWAP3 POP PUSH2 0x100 DUP8 ADD CALLDATALOAD PUSH8 0xFFFFFFFFFFFFFFFF DUP2 GT ISZERO PUSH2 0x7C6 JUMPI PUSH0 DUP1 REVERT JUMPDEST PUSH0 DUP1 PUSH1 0x20 DUP4 DUP6 SUB SLT ISZERO PUSH2 0x9C9 JUMPI PUSH0 DUP1 REVERT JUMPDEST DUP3 CALLDATALOAD PUSH8 0xFFFFFFFFFFFFFFFF DUP2 GT ISZERO PUSH2 0x9DF JUMPI PUSH0 DUP1 REVERT JUMPDEST PUSH2 0x9EB DUP6 DUP3 DUP7 ADD PUSH2 0x71E JUMP JUMPDEST SWAP1 SWAP7 SWAP1 SWAP6 POP SWAP4 POP POP POP POP JUMP JUMPDEST PUSH0 PUSH1 0x20 DUP1 DUP4 MSTORE DUP4 MLOAD DUP1 DUP3 DUP6 ADD MSTORE PUSH0 JUMPDEST DUP2 DUP2 LT ISZERO PUSH2 0xA22 JUMPI DUP6 DUP2 ADD DUP4 ADD MLOAD DUP6 DUP3 ADD PUSH1 0x40 ADD MSTORE DUP3 ADD PUSH2 0xA06 JUMP JUMPDEST POP PUSH0 PUSH1 0x40 DUP3 DUP7 ADD ADD MSTORE PUSH1 0x40 PUSH32 0xFFFFFFFFFFFFFFFFFFFFFFFFFFFFFFFFFFFFFFFFFFFFFFFFFFFFFFFFFFFFFFE0 PUSH1 0x1F DUP4 ADD AND DUP6 ADD ADD SWAP3 POP POP POP SWAP3 SWAP2 POP POP JUMP JUMPDEST PUSH0 DUP1 PUSH0 DUP1 PUSH0 DUP1 PUSH2 0x120 DUP8 DUP10 SUB SLT ISZERO PUSH2 0xA76 JUMPI PUSH0 DUP1 REVERT JUMPDEST DUP7 CALLDATALOAD PUSH2 0xA81 DUP2 PUSH2 0x6C4 JUMP JUMPDEST SWAP6 POP PUSH2 0xA90 DUP9 PUSH1 0x20 DUP10 ADD PUSH2 0x6F8 JUMP JUMPDEST SWAP5 POP PUSH1 0xC0 DUP8 ADD CALLDATALOAD SWAP4 POP PUSH1 0xE0 DUP8 ADD CALLDATALOAD SWAP3 POP PUSH2 0x100 DUP8 ADD CALLDATALOAD PUSH8 0xFFFFFFFFFFFFFFFF DUP2 GT ISZERO PUSH2 0x7C6 JUMPI PUSH0 DUP1 REVERT JUMPDEST DUP1 CALLDATALOAD PUSH3 0xFFFFFF DUP2 AND DUP2 EQ PUSH2 0x6F3 JUMPI PUSH0 DUP1 REVERT JUMPDEST PUSH0 PUSH1 0xA0 DUP3 DUP5 SUB SLT ISZERO PUSH2 0xADC JUMPI PUSH0 DUP1 REVERT JUMPDEST PUSH1 0x40 MLOAD PUSH1 0xA0 DUP2 ADD DUP2 DUP2 LT PUSH8 0xFFFFFFFFFFFFFFFF DUP3 GT OR ISZERO PUSH2 0xB24 JUMPI PUSH32 0x4E487B7100000000000000000000000000000000000000000000000000000000 PUSH0 MSTORE PUSH1 0x41 PUSH1 0x4 MSTORE PUSH1 0x24 PUSH0 REVERT JUMPDEST PUSH1 0x40 MSTORE DUP3 CALLDATALOAD PUSH2 0xB32 DUP2 PUSH2 0x6C4 JUMP JUMPDEST DUP2 MSTORE PUSH1 0x20 DUP4 ADD CALLDATALOAD PUSH2 0xB42 DUP2 PUSH2 0x6C4 JUMP JUMPDEST PUSH1 0x20 DUP3 ADD MSTORE PUSH2 0xB53 PUSH1 0x40 DUP5 ADD PUSH2 0xABA JUMP JUMPDEST PUSH1 0x40 DUP3 ADD MSTORE PUSH2 0xB64 PUSH1 0x60 DUP5 ADD PUSH2 0x93D JUMP JUMPDEST PUSH1 0x60 DUP3 ADD MSTORE PUSH2 0xB75 PUSH1 0x80 DUP5 ADD PUSH2 0x6E8 JUMP JUMPDEST PUSH1 0x80 DUP3 ADD MSTORE SWAP4 SWAP3 POP POP POP JUMP JUMPDEST PUSH0 PUSH32 0xFFFFFFFFFFFFFFFFFFFFFFFFFFFFFFFFFFFFFFFFFFFFFFFFFFFFFFFFFFFFFFFF DUP3 SUB PUSH2 0xBD6 JUMPI PUSH32 0x4E487B7100000000000000000000000000000000000000000000000000000000 PUSH0 MSTORE PUSH1 0x11 PUSH1 0x4 MSTORE PUSH1 0x24 PUSH0 REVERT JUMPDEST POP PUSH1 0x1 ADD SWAP1 JUMP JUMPDEST DUP2 DUP4 DUP3 CALLDATACOPY PUSH0 SWAP2 ADD SWAP1 DUP2 MSTORE SWAP2 SWAP1 POP JUMP INVALID LOG2 PUSH5 0x6970667358 0x22 SLT KECCAK256 PUSH8 0x284833B4A78CE530 SLT 0xF7 SHR PUSH9 0xB4FE074EA0621BC961 0xDE EXTCODESIZE 0xEA 0xB4 0xAA 0xB5 PUSH12 0x78FF5864736F6C6343000814 STOP CALLER "
		},
		"gasEstimates": {
			"creation": {
				"codeDepositCost": "621200",
				"executionCost": "infinite",
				"totalCost": "infinite"
			},
			"external": {
				"afterDonate(address,(address,address,uint24,int24,address),uint256,uint256,bytes)": "761",
				"afterInitialize(address,(address,address,uint24,int24,address),uint160,int24,bytes)": "infinite",
				"afterModifyPosition(address,(address,address,uint24,int24,address),(int24,int24,int256),int256,bytes)": "infinite",
				"afterModifyPositionCount(bytes32)": "2448",
				"afterSwap(address,(address,address,uint24,int24,address),(bool,int256,uint160),int256,bytes)": "infinite",
				"afterSwapCount(bytes32)": "2446",
				"beforeDonate(address,(address,address,uint24,int24,address),uint256,uint256,bytes)": "784",
				"beforeInitialize(address,(address,address,uint24,int24,address),uint160,bytes)": "infinite",
				"beforeModifyPosition(address,(address,address,uint24,int24,address),(int24,int24,int256),bytes)": "infinite",
				"beforeModifyPositionCount(bytes32)": "2470",
				"beforeSwap(address,(address,address,uint24,int24,address),(bool,int256,uint160),bytes)": "infinite",
				"beforeSwapCount(bytes32)": "2494",
				"getHooksCalls()": "1023",
				"lockAcquired(bytes)": "infinite",
				"poolManager()": "infinite"
			}
		},
		"methodIdentifiers": {
			"afterDonate(address,(address,address,uint24,int24,address),uint256,uint256,bytes)": "e1b4af69",
			"afterInitialize(address,(address,address,uint24,int24,address),uint160,int24,bytes)": "a910f80f",
			"afterModifyPosition(address,(address,address,uint24,int24,address),(int24,int24,int256),int256,bytes)": "30b7cdef",
			"afterModifyPositionCount(bytes32)": "05140d4d",
			"afterSwap(address,(address,address,uint24,int24,address),(bool,int256,uint160),int256,bytes)": "b47b2fb1",
			"afterSwapCount(bytes32)": "dacdbe77",
			"beforeDonate(address,(address,address,uint24,int24,address),uint256,uint256,bytes)": "b6a8b0fa",
			"beforeInitialize(address,(address,address,uint24,int24,address),uint160,bytes)": "3440d820",
			"beforeModifyPosition(address,(address,address,uint24,int24,address),(int24,int24,int256),bytes)": "fe9a6f45",
			"beforeModifyPositionCount(bytes32)": "26776cc1",
			"beforeSwap(address,(address,address,uint24,int24,address),(bool,int256,uint160),bytes)": "575e24b4",
			"beforeSwapCount(bytes32)": "5c338d32",
			"getHooksCalls()": "612c39b7",
			"lockAcquired(bytes)": "ab6291fe",
			"poolManager()": "dc4c90d3"
		}
	},
	"abi": [
		{
			"inputs": [
				{
					"internalType": "contract IPoolManager",
					"name": "_poolManager",
					"type": "address"
				}
			],
			"stateMutability": "nonpayable",
			"type": "constructor"
		},
		{
			"inputs": [
				{
					"internalType": "address",
					"name": "hooks",
					"type": "address"
				}
			],
			"name": "HookAddressNotValid",
			"type": "error"
		},
		{
			"inputs": [],
			"name": "HookNotImplemented",
			"type": "error"
		},
		{
			"inputs": [],
			"name": "InvalidPool",
			"type": "error"
		},
		{
			"inputs": [],
			"name": "LockFailure",
			"type": "error"
		},
		{
			"inputs": [],
			"name": "NotPoolManager",
			"type": "error"
		},
		{
			"inputs": [],
			"name": "NotSelf",
			"type": "error"
		},
		{
			"inputs": [
				{
					"internalType": "address",
					"name": "",
					"type": "address"
				},
				{
					"components": [
						{
							"internalType": "Currency",
							"name": "currency0",
							"type": "address"
						},
						{
							"internalType": "Currency",
							"name": "currency1",
							"type": "address"
						},
						{
							"internalType": "uint24",
							"name": "fee",
							"type": "uint24"
						},
						{
							"internalType": "int24",
							"name": "tickSpacing",
							"type": "int24"
						},
						{
							"internalType": "contract IHooks",
							"name": "hooks",
							"type": "address"
						}
					],
					"internalType": "struct PoolKey",
					"name": "",
					"type": "tuple"
				},
				{
					"internalType": "uint256",
					"name": "",
					"type": "uint256"
				},
				{
					"internalType": "uint256",
					"name": "",
					"type": "uint256"
				},
				{
					"internalType": "bytes",
					"name": "",
					"type": "bytes"
				}
			],
			"name": "afterDonate",
			"outputs": [
				{
					"internalType": "bytes4",
					"name": "",
					"type": "bytes4"
				}
			],
			"stateMutability": "nonpayable",
			"type": "function"
		},
		{
			"inputs": [
				{
					"internalType": "address",
					"name": "",
					"type": "address"
				},
				{
					"components": [
						{
							"internalType": "Currency",
							"name": "currency0",
							"type": "address"
						},
						{
							"internalType": "Currency",
							"name": "currency1",
							"type": "address"
						},
						{
							"internalType": "uint24",
							"name": "fee",
							"type": "uint24"
						},
						{
							"internalType": "int24",
							"name": "tickSpacing",
							"type": "int24"
						},
						{
							"internalType": "contract IHooks",
							"name": "hooks",
							"type": "address"
						}
					],
					"internalType": "struct PoolKey",
					"name": "",
					"type": "tuple"
				},
				{
					"internalType": "uint160",
					"name": "",
					"type": "uint160"
				},
				{
					"internalType": "int24",
					"name": "",
					"type": "int24"
				},
				{
					"internalType": "bytes",
					"name": "",
					"type": "bytes"
				}
			],
			"name": "afterInitialize",
			"outputs": [
				{
					"internalType": "bytes4",
					"name": "",
					"type": "bytes4"
				}
			],
			"stateMutability": "nonpayable",
			"type": "function"
		},
		{
			"inputs": [
				{
					"internalType": "address",
					"name": "",
					"type": "address"
				},
				{
					"components": [
						{
							"internalType": "Currency",
							"name": "currency0",
							"type": "address"
						},
						{
							"internalType": "Currency",
							"name": "currency1",
							"type": "address"
						},
						{
							"internalType": "uint24",
							"name": "fee",
							"type": "uint24"
						},
						{
							"internalType": "int24",
							"name": "tickSpacing",
							"type": "int24"
						},
						{
							"internalType": "contract IHooks",
							"name": "hooks",
							"type": "address"
						}
					],
					"internalType": "struct PoolKey",
					"name": "key",
					"type": "tuple"
				},
				{
					"components": [
						{
							"internalType": "int24",
							"name": "tickLower",
							"type": "int24"
						},
						{
							"internalType": "int24",
							"name": "tickUpper",
							"type": "int24"
						},
						{
							"internalType": "int256",
							"name": "liquidityDelta",
							"type": "int256"
						}
					],
					"internalType": "struct IPoolManager.ModifyPositionParams",
					"name": "",
					"type": "tuple"
				},
				{
					"internalType": "BalanceDelta",
					"name": "",
					"type": "int256"
				},
				{
					"internalType": "bytes",
					"name": "",
					"type": "bytes"
				}
			],
			"name": "afterModifyPosition",
			"outputs": [
				{
					"internalType": "bytes4",
					"name": "",
					"type": "bytes4"
				}
			],
			"stateMutability": "nonpayable",
			"type": "function"
		},
		{
			"inputs": [
				{
					"internalType": "PoolId",
					"name": "",
					"type": "bytes32"
				}
			],
			"name": "afterModifyPositionCount",
			"outputs": [
				{
					"internalType": "uint256",
					"name": "count",
					"type": "uint256"
				}
			],
			"stateMutability": "view",
			"type": "function"
		},
		{
			"inputs": [
				{
					"internalType": "address",
					"name": "",
					"type": "address"
				},
				{
					"components": [
						{
							"internalType": "Currency",
							"name": "currency0",
							"type": "address"
						},
						{
							"internalType": "Currency",
							"name": "currency1",
							"type": "address"
						},
						{
							"internalType": "uint24",
							"name": "fee",
							"type": "uint24"
						},
						{
							"internalType": "int24",
							"name": "tickSpacing",
							"type": "int24"
						},
						{
							"internalType": "contract IHooks",
							"name": "hooks",
							"type": "address"
						}
					],
					"internalType": "struct PoolKey",
					"name": "key",
					"type": "tuple"
				},
				{
					"components": [
						{
							"internalType": "bool",
							"name": "zeroForOne",
							"type": "bool"
						},
						{
							"internalType": "int256",
							"name": "amountSpecified",
							"type": "int256"
						},
						{
							"internalType": "uint160",
							"name": "sqrtPriceLimitX96",
							"type": "uint160"
						}
					],
					"internalType": "struct IPoolManager.SwapParams",
					"name": "",
					"type": "tuple"
				},
				{
					"internalType": "BalanceDelta",
					"name": "",
					"type": "int256"
				},
				{
					"internalType": "bytes",
					"name": "",
					"type": "bytes"
				}
			],
			"name": "afterSwap",
			"outputs": [
				{
					"internalType": "bytes4",
					"name": "",
					"type": "bytes4"
				}
			],
			"stateMutability": "nonpayable",
			"type": "function"
		},
		{
			"inputs": [
				{
					"internalType": "PoolId",
					"name": "",
					"type": "bytes32"
				}
			],
			"name": "afterSwapCount",
			"outputs": [
				{
					"internalType": "uint256",
					"name": "count",
					"type": "uint256"
				}
			],
			"stateMutability": "view",
			"type": "function"
		},
		{
			"inputs": [
				{
					"internalType": "address",
					"name": "",
					"type": "address"
				},
				{
					"components": [
						{
							"internalType": "Currency",
							"name": "currency0",
							"type": "address"
						},
						{
							"internalType": "Currency",
							"name": "currency1",
							"type": "address"
						},
						{
							"internalType": "uint24",
							"name": "fee",
							"type": "uint24"
						},
						{
							"internalType": "int24",
							"name": "tickSpacing",
							"type": "int24"
						},
						{
							"internalType": "contract IHooks",
							"name": "hooks",
							"type": "address"
						}
					],
					"internalType": "struct PoolKey",
					"name": "",
					"type": "tuple"
				},
				{
					"internalType": "uint256",
					"name": "",
					"type": "uint256"
				},
				{
					"internalType": "uint256",
					"name": "",
					"type": "uint256"
				},
				{
					"internalType": "bytes",
					"name": "",
					"type": "bytes"
				}
			],
			"name": "beforeDonate",
			"outputs": [
				{
					"internalType": "bytes4",
					"name": "",
					"type": "bytes4"
				}
			],
			"stateMutability": "nonpayable",
			"type": "function"
		},
		{
			"inputs": [
				{
					"internalType": "address",
					"name": "",
					"type": "address"
				},
				{
					"components": [
						{
							"internalType": "Currency",
							"name": "currency0",
							"type": "address"
						},
						{
							"internalType": "Currency",
							"name": "currency1",
							"type": "address"
						},
						{
							"internalType": "uint24",
							"name": "fee",
							"type": "uint24"
						},
						{
							"internalType": "int24",
							"name": "tickSpacing",
							"type": "int24"
						},
						{
							"internalType": "contract IHooks",
							"name": "hooks",
							"type": "address"
						}
					],
					"internalType": "struct PoolKey",
					"name": "",
					"type": "tuple"
				},
				{
					"internalType": "uint160",
					"name": "",
					"type": "uint160"
				},
				{
					"internalType": "bytes",
					"name": "",
					"type": "bytes"
				}
			],
			"name": "beforeInitialize",
			"outputs": [
				{
					"internalType": "bytes4",
					"name": "",
					"type": "bytes4"
				}
			],
			"stateMutability": "nonpayable",
			"type": "function"
		},
		{
			"inputs": [
				{
					"internalType": "address",
					"name": "",
					"type": "address"
				},
				{
					"components": [
						{
							"internalType": "Currency",
							"name": "currency0",
							"type": "address"
						},
						{
							"internalType": "Currency",
							"name": "currency1",
							"type": "address"
						},
						{
							"internalType": "uint24",
							"name": "fee",
							"type": "uint24"
						},
						{
							"internalType": "int24",
							"name": "tickSpacing",
							"type": "int24"
						},
						{
							"internalType": "contract IHooks",
							"name": "hooks",
							"type": "address"
						}
					],
					"internalType": "struct PoolKey",
					"name": "key",
					"type": "tuple"
				},
				{
					"components": [
						{
							"internalType": "int24",
							"name": "tickLower",
							"type": "int24"
						},
						{
							"internalType": "int24",
							"name": "tickUpper",
							"type": "int24"
						},
						{
							"internalType": "int256",
							"name": "liquidityDelta",
							"type": "int256"
						}
					],
					"internalType": "struct IPoolManager.ModifyPositionParams",
					"name": "",
					"type": "tuple"
				},
				{
					"internalType": "bytes",
					"name": "",
					"type": "bytes"
				}
			],
			"name": "beforeModifyPosition",
			"outputs": [
				{
					"internalType": "bytes4",
					"name": "",
					"type": "bytes4"
				}
			],
			"stateMutability": "nonpayable",
			"type": "function"
		},
		{
			"inputs": [
				{
					"internalType": "PoolId",
					"name": "",
					"type": "bytes32"
				}
			],
			"name": "beforeModifyPositionCount",
			"outputs": [
				{
					"internalType": "uint256",
					"name": "count",
					"type": "uint256"
				}
			],
			"stateMutability": "view",
			"type": "function"
		},
		{
			"inputs": [
				{
					"internalType": "address",
					"name": "",
					"type": "address"
				},
				{
					"components": [
						{
							"internalType": "Currency",
							"name": "currency0",
							"type": "address"
						},
						{
							"internalType": "Currency",
							"name": "currency1",
							"type": "address"
						},
						{
							"internalType": "uint24",
							"name": "fee",
							"type": "uint24"
						},
						{
							"internalType": "int24",
							"name": "tickSpacing",
							"type": "int24"
						},
						{
							"internalType": "contract IHooks",
							"name": "hooks",
							"type": "address"
						}
					],
					"internalType": "struct PoolKey",
					"name": "key",
					"type": "tuple"
				},
				{
					"components": [
						{
							"internalType": "bool",
							"name": "zeroForOne",
							"type": "bool"
						},
						{
							"internalType": "int256",
							"name": "amountSpecified",
							"type": "int256"
						},
						{
							"internalType": "uint160",
							"name": "sqrtPriceLimitX96",
							"type": "uint160"
						}
					],
					"internalType": "struct IPoolManager.SwapParams",
					"name": "",
					"type": "tuple"
				},
				{
					"internalType": "bytes",
					"name": "",
					"type": "bytes"
				}
			],
			"name": "beforeSwap",
			"outputs": [
				{
					"internalType": "bytes4",
					"name": "",
					"type": "bytes4"
				}
			],
			"stateMutability": "nonpayable",
			"type": "function"
		},
		{
			"inputs": [
				{
					"internalType": "PoolId",
					"name": "",
					"type": "bytes32"
				}
			],
			"name": "beforeSwapCount",
			"outputs": [
				{
					"internalType": "uint256",
					"name": "count",
					"type": "uint256"
				}
			],
			"stateMutability": "view",
			"type": "function"
		},
		{
			"inputs": [],
			"name": "getHooksCalls",
			"outputs": [
				{
					"components": [
						{
							"internalType": "bool",
							"name": "beforeInitialize",
							"type": "bool"
						},
						{
							"internalType": "bool",
							"name": "afterInitialize",
							"type": "bool"
						},
						{
							"internalType": "bool",
							"name": "beforeModifyPosition",
							"type": "bool"
						},
						{
							"internalType": "bool",
							"name": "afterModifyPosition",
							"type": "bool"
						},
						{
							"internalType": "bool",
							"name": "beforeSwap",
							"type": "bool"
						},
						{
							"internalType": "bool",
							"name": "afterSwap",
							"type": "bool"
						},
						{
							"internalType": "bool",
							"name": "beforeDonate",
							"type": "bool"
						},
						{
							"internalType": "bool",
							"name": "afterDonate",
							"type": "bool"
						}
					],
					"internalType": "struct Hooks.Calls",
					"name": "",
					"type": "tuple"
				}
			],
			"stateMutability": "pure",
			"type": "function"
		},
		{
			"inputs": [
				{
					"internalType": "bytes",
					"name": "data",
					"type": "bytes"
				}
			],
			"name": "lockAcquired",
			"outputs": [
				{
					"internalType": "bytes",
					"name": "",
					"type": "bytes"
				}
			],
			"stateMutability": "nonpayable",
			"type": "function"
		},
		{
			"inputs": [],
			"name": "poolManager",
			"outputs": [
				{
					"internalType": "contract IPoolManager",
					"name": "",
					"type": "address"
				}
			],
			"stateMutability": "view",
			"type": "function"
		}
	]
}